:020000040800F2
:10000000900B00209D0C0008950100089701000846
:10001000990100089B0100089D01000800000000F4
:100020000000000000000000000000009F01000828
:10003000A101000800000000A3010008A5010008BC
:10004000B70C0008B70C0008B70C0008B70C000884
:10005000B70C0008B70C0008B70C0008B70C000874
:10006000B70C0008B70C0008B70C0008B70C000864
:10007000B70C0008B70C0008B70C0008B70C000854
:10008000B70C0008B70C0008B70C0008B70C000844
:10009000B70C0008B70C0008B70C0008B70C000834
:1000A000B70C00086D370008B70C0008B70C000843
:1000B000B70C0008292E0008112C0008B70C000806
:1000C000B70C0008B70C0008B70C0008B70C000804
:1000D000B70C000871310008A1310008B70C000806
:1000E000B70C0008B70C0008B70C000800F002F8C5
:1000F00000F03AF80AA090E8000C82448344AAF188
:100100000107DA4501D100F02FF8AFF2090EBAE885
:100110000F0013F0010F18BFFB1A43F0010318473B
:10012000FC4B00001C4C0000103A24BF78C878C17A
:10013000FAD8520724BF30C830C144BF04680C60ED
:10014000704700000023002400250026103A28BF35
:1001500078C1FBD8520728BF30C148BF0B60704739
:100160001FB51FBD10B510BD03F03CFB1146FFF7D6
:10017000F7FF00F057FA03F05AFB03B4FFF7F2FF62
:1001800003BC03F061FB000030BF72B662B680F3BF
:10019000088870477047FEE7FEE7FEE7FEE7704716
:1001A00070477047704700000CB500220192009222
:1001B0005248016841F4803101604FF4A063016846
:1001C00001F4003100910199491C0191009911B984
:1001D00001999942F3D10168890302D50121009167
:1001E00000E000920099012930D145490A6842F0A7
:1001F00010020A600A6822F003020A600A6842F0EC
:1002000002020A604168416041684160416841F40E
:1002100080614160416821F47C114160416841F492
:10022000E8114160016841F0807101600168890155
:10023000FCD5416821F003014160416841F00201B1
:1002400041604168C1F381010229FAD10CBDABE7DD
:1002500010B52A48016841F0010101604168294A4E
:10026000114041600168284A11400160016821F491
:1002700080210160416821F4FE0141604FF41F01BB
:100280008160FFF7E4FF21494FF00060086010BD76
:1002900010B51A4A506800F00C011D4B1D4800298A
:1002A0000ED004290ED008290ED003605168194AD7
:1002B000C1F30311121D515C0268CA40026010BDF7
:1002C0000360F3E70360F1E7516801F470115368CC
:1002D00003F48033022404EB914133B153689B0350
:1002E00007D50D4B59430160E0E70B4B59430160C3
:1002F000DCE7074B59430160D8E7000000100240DB
:10030000002002400000FFF8FFFFF6FE08ED00E0CD
:1003100000127A000000002000093D00F8B5FC48FA
:100320000178052912D2DFE801F003050B0D0F005B
:10033000F8A40CE0407808B1F8A408E0F9A406E0BD
:10034000FAA404E0FBA402E0FBA400E0FCA4FE4845
:100350000678FE48056802F0C3FF002122460846E1
:1003600003F075F8F2A21021002003F070F80C24BD
:1003700005232A4610212046009403F02AF8F4A20F
:100380001021422003F063F80123324610214E2051
:10039000009403F01EF8BDE8F84002F05EBFDC4AAE
:1003A000EC4B917843F82100491C0320B1FBF0F39A
:1003B00000FB131090707047E648D0E90012806887
:1003C00011440844032190FBF1F0B0F5A07F01DD5A
:1003D000081F70470120704710B5CD4900200870F4
:1003E000022000F006FB042000F023FBD94824384B
:1003F00000F033FABDE8104090E708B5C448012189
:1004000001700021417000F051FB022000F0F1FA70
:10041000042000F00EFBCF48243800F01EFA4FF401
:100420004871002301221846009100F0EBFBBDE863
:10043000084073E708B5B6480121017041700220F9
:1004400000F0D7FA042000F0F4FAC248243800F093
:1004500004FAFFF7B1FF024640F207700090BE4871
:10046000C8231946006800F0CDFBBDE8084055E7F9
:1004700010B5BA4800684FF4E162904201DDA0F582
:100480006160B5490860904202DB40F20770086085
:10049000086810F5E16F01DCB14808609C49022052
:1004A0000870042000F0A5FA322000F0C2FAA94832
:1004B000243800F0D2F9BDE810402FE710B5944978
:1004C00003200870322000F0B4FAA248243800F06B
:1004D000C4F9BDE8104021E710B58D4C2078002804
:1004E00015D000F0CCFB00F089FB9A48243800F0CE
:1004F000B4F9022000F07DFA1E2000F09AFA0020E4
:1005000000F030FB04202070BDE8104006E7BDE895
:10051000104072E72DE9F05F8B49087800F0010484
:1005200000F002064D68CF68002C02D02846FFF785
:1005300036FF77480078002872D0042870D0012850
:1005400031D0DFF81CA2DFF810824FF4E16B40F2EB
:10055000077902282ED0032862D184B386B3781B92
:10056000811C052900D2002003F034FC01467948A3
:10057000243800F024F903F0F1FBD8F80010084407
:10058000C8F80000584501DBC8F80090D8F8000012
:1005900010F5E16F01DCC8F800A0D8F80000BDE854
:1005A000F05F00F01EBA002C3AD000F068FBBDE806
:1005B000F05F5DE72CB13EB1BDE8F05F7EE728E07B
:1005C0002AE0BDE8F05F35E7C5F5A070811C05297C
:1005D00000D2002003F0FEFB01465E48243800F004
:1005E000EEF803F0BBFBD8F800100844C8F8000090
:1005F000584501DBC8F80090D8F8000010F5E16F0D
:1006000001DCC8F800A0D8F80000BDE8F05F00F0F9
:10061000E8B9BDE8F05F0DE7BDE8F05F28E7FFE768
:10062000BDE8F09F08B5022002F0A4F902F050F9ED
:10063000022002F03BFA012002F038FA4FF4E134D4
:10064000204602F09DFC204602F0E6FC02F01EFF70
:1006500001F0E2FF002002F06AFD40F2DC5002F0FF
:1006600065F9404800903B483F4B00224FF07C51D9
:10067000243800F092F800F0F7F800F032FA02F0B7
:100680002FFE002139A2084602F0E1FE02F0E5FD4E
:100690001F4D00262E70FFF741FE6E60364F4FF063
:1006A0001E08C8244EF660296868401C68603878C7
:1006B00010B13E70FFF72EFF2878042802D00128E1
:1006C00006D007E000F077FA20B1FFF785FE01E0E1
:1006D00000F0B0FA6868B0FBF8F108FB110008B947
:1006E00000F0C6F9287840B96868B0FBF4F104FB63
:1006F000110010B9002000F074F901F0A0FF0128EA
:1007000004D1FFF7E9FEC82002F010F9686835E06F
:100710001C0000205354414E444259003C46494E6F
:100720004400000046494E443E000000414C494709
:100730004E00000041494D0052455455524E0000B4
:100740003F3F3F3F3F3F0000BC0000202C00002007
:1007500046000000B00000203800002034000020D7
:10076000F9F8FFFF00007041CDCC4C3E32303235FD
:10077000452052656164790028000020B0FBF4F147
:1007800004FB110008B9FFF7C9FD6868484500D9A6
:100790006E60052002F0CAF886E770B50446049D35
:1007A00021606260A3600020E06020616061A06160
:1007B000411E284603F041FDE061256270BD2DE930
:1007C000F04104460846E16803F062FC054629460C
:1007D000206903F08DF92061E16903F027FC02D262
:1007E000E06920610AE0E069216980F0004003F0DF
:1007F0001DFC03D2E06980F0004020612846616959
:1008000003F046FC01466561A06803F043FB064621
:100810002169606803F03EFB07462946206803F023
:1008200039FB394603F064F9314603F061F9A06100
:10083000216A03F0FBFB02D2206AA0610AE0206A71
:10084000A16980F0004003F0F1FB03D2206A80F040
:100850000040A061A069BDE8F08100210161416113
:1008600081617047C160F8E73048002181704170B4
:10087000017018212E4802F08BBF2D481830817866
:1008800001F007022A490A700279C37842EA03227A
:100890004A608279437942EA03228A60027AC37904
:1008A00042EA0322CA60827A437A42EA03220A6158
:1008B000027BC07A42EA002048611C480121017095
:1008C0004168491C4160704730B4184B184A997808
:1008D0001832002919D0002501291DD0022919D16B
:1008E00059784C1CE4B25C7050540E2C12D39D709D
:1008F00000210220135C5940401CC0B20D28F9D3DE
:10090000507B884206D130BCB7E7AA2802D11070CC
:100910000120987030BC7047552801D09D70F9E7D0
:100920005070022058709870F4E7000028000020F2
:10093000BC0000204FF4616190FBF1F201FB12005A
:10094000002801DA00F561607047B0F5E16F01DB66
:1009500040F2077010F5E16F00DCCC48704700B53D
:10096000FFF7E8FFCA494968081AB0F5E16F02DDF0
:10097000A0F5616004E010F5E16F01DA00F5616057
:10098000002800DA4042322801DA012000BD0020B0
:1009900000BD1CB5002800DA0020B0F5616F01DB56
:1009A00040F60F607A218DF8001001218DF80110BA
:1009B00003218DF80210010A8DF803108DF8040050
:1009C0000521684602F0C8FB8DF805007B208DF8F4
:1009D00006000721684602F0B2FB022001F0A6FFE4
:1009E0001CBD10B5FFF7B1FFFFF7A4FFBDE8104035
:1009F000CFE71CB57A218DF8001001218DF8011088
:100A000000218DF80210010A8DF803108DF8040002
:100A10000521684602F0A0FB8DF805007B208DF8CB
:100A200006000721684602F08AFB022001F07EFFE3
:100A30001CBD1CB57A218DF8001001218DF8011024
:100A40008DF8021000218DF803108DF804000521A7
:100A5000684602F081FB8DF805007B208DF80600CA
:100A60000721684602F06BFB022001F05FFF1CBD0E
:100A70001CB57A208DF8000001208DF801000E20B1
:100A80008DF8020002208DF803000421684602F070
:100A900063FB8DF804007B208DF805000621684675
:100AA00002F04DFB022001F041FF1CBD1CB57A2075
:100AB0008DF8000001208DF8010006208DF802005D
:100AC0000321684602F048FB8DF803007B208DF877
:100AD00004000521684602F032FB022001F026FFE7
:100AE0001CBD70B5FFF7E2FF0220FFF782FF022076
:100AF00001F01CFF0420FFF79CFF0A2001F016FF05
:100B0000634D0024AC600020FFF76BFF4FF4FA70D8
:100B100001F00CFFFFF7ACFF0A2001F007FF2C707B
:100B20005C48047670BD70B5814202DD4FF4966377
:100B300000E0594B574D564C203D10E01844002B17
:100B400003DD884204DD084602E0884200DA0846F8
:100B50002269082A03DA561C266145F822008842D9
:100B6000ECD170BD70B5FFF7F0FE0446484DA868A3
:100B70000026EE602E61002801DD002C03DB00283A
:100B800009DA002C07DD0021FFF7CDFF2146002008
:100B9000FFF7C9FF02E02146FFF7C5FF286940B112
:100BA000012028703B48203800686861BDE870402B
:100BB00017E72E7070BD10B5354B187800280FD090
:100BC0005869FFF7CCFEA0B158699860D868401CFE
:100BD000D8601969884205DB00201870012010BD1B
:100BE000012010BD2B49203951F820005861FFF732
:100BF000F8FE002010BD26480078704724490020E8
:100C00000870704770B5049D224C20606160A3603D
:100C1000E560002A01DB012201E04FF0FF32226192
:100C200002FB0100FFF791FE606101212176BDE822
:100C30007040D6E610B5174C207E00281ED06069A3
:100C4000FFF78DFE002819D011496069886020697E
:100C500040422061A168002906DD6268114461609C
:100C6000E268914200DD6260D4E9001200FB0210EC
:100C7000FFF76BFE6061BDE81040B2E610BD0549AC
:100C8000002008767047034800697047F9F8FFFFB5
:100C9000300000200401002050FBFFFF094880477E
:100CA00009480047FEE7FEE7FEE7FEE7FEE7FEE74E
:100CB000FEE7FEE7FEE7FEE704480549054A064B66
:100CC0007047000051020008ED0000089005002068
:100CD000900B002090070020900700202A4908432D
:100CE0002A490860704770B50F23C2780126017841
:100CF000002A1ED0254A126802F4E062C2F5E062C2
:100D0000120AC2F10404D3404578A54082781A4003
:100D10002A43120101F1E02181F80024007800F05B
:100D20001F018E404009800000F1E020C0F8006102
:100D300070BD01F01F0086404809800000F1E020EE
:100D4000C0F8806170BD124A114001430F48001F76
:100D5000016070470D4A121D002903D0116801433C
:100D60001160704711688143116070474FF0E021B6
:100D7000042804D0086920F004000861704708695D
:100D800040F00400086170470000FA050CED00E037
:100D900080FFFF1F10B5012000F02FFCBDE81040C0
:100DA000002000F02ABC2049086070471E49091F36
:100DB000086070471C498431086070471B4A1188DD
:100DC00021F46071014311807047184A118821F0A5
:100DD0007F0101431180704708B5144A2C3A104432
:100DE00000900098016008BD08B510492C390844EE
:100DF00000900098008808BD0B489C300068C0B285
:100E000070470A480830018841F0010101807047AD
:100E10000548A0300068C0B2704704480830018817
:100E200041F002010180704704860D422C6C0040A5
:100E300001684FF6FE7211400160002101604160BF
:100E40008160C1607249724A0839904204D1486891
:100E500040F00F00486070476D4A1432904204D150
:100E6000486840F0F00048607047694A2832904274
:100E700004D1486840F4706048607047644A3C326E
:100E8000904204D1486840F4704048607047604A1E
:100E90005032904204D1486840F470204860704756
:100EA0005B4A6432904204D1486840F47000486064
:100EB0007047574A7832904204D1486840F07060D9
:100EC00048607047534A111F904204D1086840F0AF
:100ED0000F00086070474F4A1432904204D10868EE
:100EE00040F0F000086070474A4A2832904204D12E
:100EF000086840F4706008607047464A3C3290428F
:100F000004D1086840F4704008607047414A50328C
:100F10009042FAD1086840F470200860704730B5FC
:100F2000026847F6F0739A430C6A8B682343D1E951
:100F300004452C4323438C692343CC6923434C6AE7
:100F400023438C6A234313430360CA6842600A68E0
:100F500082604968C16030BD0021016041608160EC
:100F6000C160016141618161C1610162416281626F
:100F70007047002904D0016841F001010160704709
:100F800001684FF6FE72114001607047002A03D0DD
:100F900002680A430260704702688A430260704731
:100FA00041607047406880B2704702460020D1001F
:100FB00003D518490839096802E015490839096854
:100FC000114200D001207047C10003D51149091F0B
:100FD000086070470E490839486070470246002093
:100FE000D10003D50B490839096802E008490839DE
:100FF0000968114200D001207047C10003D505499E
:10100000091F0860704702490839486070470000AE
:10101000080002400804024010B59C49884209D1EA
:101020000121042000F0D3FA0021BDE81040042083
:1010300000F0CDBA9649884209D10121082000F07C
:10104000C6FA0021BDE81040082000F0C0BA91495E
:10105000884209D10121102000F0B9FA0021BDE831
:101060001040102000F0B3BA8B49884209D1012109
:10107000202000F0ACFA0021BDE81040202000F054
:10108000A6BA8649884209D10121402000F09FFA82
:101090000021BDE81040402000F099BA8049884204
:1010A00009D10121802000F092FA0021BDE8104012
:1010B000802000F08CBA7B4988420AD18415012136
:1010C000204600F084FA2046BDE81040002100F0E0
:1010D0007EBA10BD10B50121084600F078FA002153
:1010E000BDE81040012000F072BA2DE9F041002265
:1010F000CC7804F00F03E40601D58C7823430C78F8
:101100004FF00F0714F0FF0F4FF0010C1CD00568D3
:101110000CFA02F40E882640A64211D1960007FA76
:1011200006F825EA080503FA06F848EA0505CE7828
:10113000282E02D0482E02D002E0446100E0046173
:10114000521C082AE4D305600A88FF2A1ED9456884
:10115000002202F108060CFA06F40E882640A64288
:1011600010D1960007FA06F825EA080503FA06F8F2
:1011700048EA0505CE78282E00D14461CE78482E65
:1011800000D10461521C082AE3D34560BDE8F08118
:101190004FF6FF710180022181700421C1707047F8
:1011A0000246002092680A4200D001207047806801
:1011B00080B2704702460020D2680A4200D0012067
:1011C0007047C06880B270470161704741617047E5
:1011D000002A01D00161704741617047C1607047CA
:1011E00041F48032826181618261816980697047E6
:1011F00010B52D4B1A684FF68074224042EA001059
:101200000843186010BD2949C8617047F0B5264CE5
:10121000002801DAE36900E06368C0F30346420D89
:10122000120185B2C0F301579540032F07D0C202C7
:101230000CD50322B240934343F0706209E023F0DF
:101240007062636823F07063636002E0AB4343F055
:10125000706201B12A43002801DAE261F0BD6260E8
:10126000F0BD10B58A07120F0F23934021F003043D
:101270000D4921448C689C438C608B6890400343EB
:101280008B6010BD0949DC310860704700080140DF
:10129000000C014000100140001401400018014002
:1012A000001C0140002001400000014000002042DD
:1012B00010B501210C07204600F094F92046BDE846
:1012C0001040002100F08EB9214908627047204982
:1012D000086170471F4A116821F0E0010143116065
:1012E00070471B49A031086070471A4B1A6822F0FA
:1012F000030202431A601848026842F004020260C6
:10130000012905D020BF016821F004010160704768
:1013100030BFF8E70F48016841F00401016001683F
:1013200041F0020101600C48016841F004010160D4
:1013300030BF704701460020064A52680A4200D07A
:101340000120704703490A6842EA8000086070473C
:1013500000000E420070004010ED00E0B44801684B
:1013600041F0010101604168B24A114041600168E9
:10137000B14A11400160016821F480210160416897
:1013800021F4FE0141604FF41F0181607047A849BC
:101390000A6822F480320A600A6822F480220A6015
:1013A000B0F5803F07D0B0F5802F03D1086840F436
:1013B000A02008607047086840F4803008607047DB
:1013C0000346002059099A4A01290AD002290AD065
:1013D000516A03F01F02012393400B4200D0012009
:1013E00070471168F5E7116AF3E718B5002000901F
:1013F0004FF4A0643120FFF7E3FF0099491C0091EE
:101400000099A14201D00028F4D03120FFF7D8FF85
:1014100008B1012018BD002018BD854A116821F0CF
:10142000F80141EAC00010607047844908607047C5
:101430007F4B5A6822F47C1208431043586070476F
:101440007E49086670477A4A516821F003010143DA
:10145000516070477648406800F00C007047744A4D
:10146000516821F0F001014351607047704A5168A2
:1014700021F4E0610143516070476D4A516821F4E5
:10148000605141EAC00050607047694A002903D0AA
:10149000517A014351727047517A814351727047BA
:1014A0006649D83108607047614A516821F440416B
:1014B0000143516070475E49002220310A7001F8F3
:1014C0002029012805D0042802D1052081F8200018
:1014D0007047012081F82000704759490860704723
:1014E00053490A6A02430A62704755494439086001
:1014F000704710B54E4A516801F00C01514B00295C
:1015000027D0042927D0082927D00360516801F08B
:10151000F00109094C4B5C5C0168E1404160546892
:1015200004F4E064240A1C5D21FA04F48460546825
:1015300004F46054E40A1B5DD940C160526802F4AF
:101540004042920B404B1B1F9A5CB1FBF2F10161D0
:1015500010BD0360DAE70360D8E7516801F4701149
:10156000536803F48033022404EB914133B1536890
:101570009B0307D5354B59430160C7E7334B5943AC
:101580000160C3E72F4B59430160BFE7284A002998
:1015900003D05169014351617047516981435161E1
:1015A0007047234A002903D0916901439161704734
:1015B00091698143916170471D4A002903D0D16927
:1015C0000143D1617047D1698143D1617047184AA5
:1015D000002903D0D1680143D1607047D1688143AD
:1015E000D1607047124A002903D01169014311618B
:1015F0007047116981431161704711494039086092
:1016000070470E49C86470470949C8717047084857
:10161000416A41F080714162704701460020044AEE
:1016200092680A4200D001207047014988727047D1
:10163000001002400000FFF8FFFFF6FE00004242EB
:101640008004424200127A004C00002000093D0054
:1016500010B5FE4988420AD1C41401212046FFF783
:10166000B6FF2046BDE810400021FFF7B0BFB0F143
:10167000804F0CD0F649884213D101210220FFF798
:10168000B1FF0021BDE810400220FFF7ABBF0121F0
:101690000846FFF7A7FF0021BDE810400120FFF733
:1016A000A1BFEC49884209D101210420FFF79AFF2C
:1016B0000021BDE810400420FFF794BFE6498842AE
:1016C00009D101210820FFF78DFF0021BDE810405E
:1016D0000820FFF787BFE149884209D10121102086
:1016E000FFF780FF0021BDE810401020FFF77ABF10
:1016F000DB49884209D101212020FFF773FF002137
:10170000BDE810402020FFF76DBFD64988420AD1BE
:10171000441401212046FFF75AFF2046BDE810403F
:101720000021FFF754BFD04988420AD10121CC04DF
:101730002046FFF74CFF2046BDE810400021FFF790
:1017400046BFCA4988420AD101210C052046FFF74D
:101750003EFF2046BDE810400021FFF738BFC449D6
:1017600088420AD101214C052046FFF730FF204670
:10177000BDE810400021FFF72ABFBE49884209D1C9
:1017800001214020FFF72EFF0021BDE8104040203E
:10179000FFF728BFB849884209D101218020FFF70F
:1017A00021FF0021BDE810408020FFF71BBFB34997
:1017B00088420AD1841501212046FFF713FF2046F5
:1017C000BDE810400021FFF70DBFAD4988420AD1A6
:1017D00001210C042046FFF7FAFE2046BDE8104028
:1017E0000021FFF7F4BEA74988420AD101214C0429
:1017F0002046FFF7ECFE2046BDE810400021FFF731
:10180000E6BEA14988420AD101218C042046FFF797
:10181000DEFE2046BDE810400021FFF7D8BE10BD17
:1018200030B50288894C8F4DA0420DD0A8420BD014
:10183000B0F1804F08D0864B984205D0854B984236
:1018400002D0854B984203D122F070034A881A4394
:10185000824B984206D0824B984203D022F44073C8
:10186000CA881A4302808A8882850A880285A04233
:101870000AD0A84208D0824A904205D0814A9042BC
:1018800002D0814A904201D1097A018601218182E8
:1018900030BD30B5028C22F001020284028C8388B4
:1018A000048B24F0700424F003050C882C4322F0F0
:1018B00002020D8915434A882A43644DA8420BD081
:1018C000684DA84208D06E4DA84205D06D4DA84283
:1018D00002D06D4DA8420FD122F008054A892A4353
:1018E00022F004058A882A4323F4807323F40073CA
:1018F0008D891D43CB892B4383800483C9888186CE
:10190000028430BD70B5028C22F010020284028C79
:101910008388048B24F4E04424F440760D884FF649
:10192000FF7404EA0525354322F020020E8904EAFB
:10193000061616434A8804EA02123243434EB04266
:1019400002D0484EB04217D122F080024E8904EAFC
:101950000616164326F040068A8804EA021232432D
:1019600023F4806323F400638E8904EA86061E4311
:10197000CB8904EA8303334383800583C9880187C5
:10198000028470BD70B5028C22F480720284028CD5
:101990008388848B24F0700424F003040D8825438D
:1019A00022F400720E894FF6FF7404EA06261643ED
:1019B0004A8804EA02223243244EB04202D0294E21
:1019C000B04217D122F400664A8904EA0222324367
:1019D00022F480668A8804EA0222324323F4805388
:1019E00023F400538E8904EA06161E43CB8904EAC9
:1019F0000313334383808583C9888187028470BD44
:101A000070B5028C22F480520284058C8288838B0C
:101A100023F4E04323F440760C884FF6FF7303EA87
:101A20000424344325F400550E8903EA06362E4378
:101A30004D8803EA05353543044EB04202D0094EC5
:101A4000B04226D122F480468A891FE0002C014052
:101A50000004004000080040000C0040001000405E
:101A60000014004000340140004C0140005001408F
:101A70000054014000180040001C004000200040BD
:101A800000400140004401400048014003EA821246
:101A9000324382808483C988A0F84010058470BDD9
:101AA000828B22F440628283828B4FF6FF7303EABB
:101AB00001210A4382837047F0B5048C24F48054DA
:101AC0000484868B048C4FF6FF7505EA013726F4F3
:101AD000734605EA0222324305EA03331343F74A09
:101AE00090420ED0F64A90420BD0B0F1804F08D011
:101AF000F44A904205D0F44A904202D0F34A904210
:101B000005D124F40051394341F4805104E024F418
:101B100002420A4342F4805183830184F0BD828BE8
:101B200022F00C028283828B0A4382837047F0B5D5
:101B3000048C24F480740484858B048C4FF6FF7726
:101B400007EA012625F0F30507EA031313432B43A5
:101B5000DA4A90420ED0DA4A90420BD0B0F1804F70
:101B600008D0D84A904205D0D74A904202D0D74AEE
:101B7000904205D124F40071314341F4807104E0B6
:101B800024F420620A4342F4807183830184F0BD0F
:101B9000028B22F440620283028B4FF6FF7303EA4A
:101BA00001210A4302837047F0B5048C24F010042D
:101BB0000484068B048C4FF6FF7505EA011726F4A2
:101BC000734605EA0333334305EA02221A43BB4B4B
:101BD00098420ED0BA4B98420BD0B0F1804F08D04B
:101BE000B84B984205D0B84B984202D0B74B9842B8
:101BF00005D124F02001394341F0100104E024F024
:101C0000A0030B4343F0100102830184F0BD028B5B
:101C100022F00C020283028B0A430283704770B5E4
:101C2000048C24F001040484058B048C25F0F30556
:101C30004FF6FF7606EA031313432B439F4A904265
:101C40000ED09F4A90420BD0B0F1804F08D09D4AF1
:101C5000904205D09C4A904202D09C4A904205D1C5
:101C600024F002020A4342F0010104E024F00A02D7
:101C70000A4342F001010383018470BD70B505463B
:101C80000C468E48854209D08D48854206D0B5F174
:101C9000804F03D08B48854200D08B4820886188D4
:101CA000A288238958B1042811D0082817D02846C3
:101CB000FFF702FFE1882846BDE87040F0E62846BD
:101CC000FFF7ADFFE1882846BDE870409FE7284652
:101CD000FFF76AFFE1882846BDE8704058E72846CC
:101CE000FFF725FFE1882846BDE8704017E72DE99A
:101CF000F04107460C46002501266188002900D1E5
:101D00000225A288012A00D102262088238988B1D1
:101D10003846FFF749FFE1883846FFF739FF238946
:101D2000324629463846FFF77AFFE1883846BDE853
:101D3000F0416CE73846FFF772FFE1883846FFF75D
:101D400066FF2389324629463846FFF72DFFE18892
:101D50003846BDE8F0411BE710B50A884B88CC88AF
:101D60001A438B8823431A430B891A434B89898969
:101D70001A430A43A0F8442010BD4FF6FF7181803A
:101D800000210180C18041800172704700210180E3
:101D900041808180C180018141818181C181704701
:101DA00000210180418001228280C1800181704731
:101DB0000021018041808180C18001814181818138
:101DC0007047002904D0018841F00101018070476B
:101DD000018821F0010101807047002905D030F809
:101DE000441F41F400410180704730F8441FC1F3A3
:101DF0000E0101807047002A03D082890A43828144
:101E0000704782898A43828170478182704711437B
:101E1000A0F848107047002A03D082890A438281C3
:101E2000704782898A4382817047018921F00701C6
:101E300001817047028922F070020A4302817047D3
:101E400000B503461846FFF7F5FF188940F0070074
:101E5000188100BD70B50D4604461146602D0CD0AA
:101E600001222046FFF7DBFE29462046FFF7E2FF6E
:101E7000208940F00700208170BD01222046FFF735
:101E800093FEF1E730B50489E4B24FF6FF7505EA39
:101E9000032313430B432343038130BD10B5044692
:101EA0002046FFF7EFFF208920F0070040F00700F1
:101EB00020F0700040F07000208110BD002C014027
:101EC000003401400004004000080040000C0040C5
:101ED00010B504462046FFF7D5FF208940F4804026
:101EE0002081EAE7018582827047028822F0700231
:101EF0000A430280704770B50589048B068C25F073
:101F000007050D434FF6FC410C4040F201110C4314
:101F100026F022064FF6FF7101EA03111143314307
:101F200005810483018470BD028B22F070020A4394
:101F300002837047028B22F4E0424FF6FF7303EAFC
:101F40000121114301837047828B22F070020A4302
:101F500082837047828B22F4E0424FF6FF7303EADC
:101F60000121114381837047002904D0018841F089
:101F7000800101807047018821F080010180704755
:101F8000002904D0818841F0040181807047818854
:101F900021F0040181807047002904D0818841F03C
:101FA000080181807047818821F008018180704795
:101FB000002904D0818841F0010181807047818827
:101FC00021F0010181807047028B22F008020A4350
:101FD00002837047028B22F400624FF6FF7303EA1C
:101FE0000121114301837047828B22F008020A43CA
:101FF00082837047828B22F400624FF6FF7303EAFC
:102000000121114381837047028B22F004020A43AD
:1020100002837047028B22F480624FF6FF7303EA5B
:102020000121114301837047828B22F004020A438D
:1020300082837047828B22F480624FF6FF7303EA3B
:102040000121114381837047028B22F080020A43F1
:1020500002837047028BC2F30E024FF6FF7303EA4E
:102060000121114301837047828B22F080020A43D1
:1020700082837047828BC2F30E024FF6FF7303EA2E
:102080000121114381837047028C22F002020A432E
:1020900002847047028C22F008020A4302847047CF
:1020A000028C22F020024FF6FF7303EA0111114364
:1020B00001847047028C22F080024FF6FF7303EA1E
:1020C0000111114301847047028C22F400724FF613
:1020D000FF7303EA0121114301847047028C22F44B
:1020E00000624FF6FF7303EA012111430184704738
:1020F000028C22F400524FF6FF7303EA01311143C0
:102100000184704710B501238B40048C9C430484E8
:10211000038C8A4013430384CFE610B504238B401D
:10212000048C9C430484038C8A4013430384C4E6D8
:1021300030B500F1180301248C40058CA5430584BB
:10214000002911D008290FD0091FC1F34E001844EF
:10215000016821F4E041016001684FF6FF7303EA72
:1021600002221143016030BD03EB5100016821F0F0
:102170007001016001681143016030BD002904D085
:10218000018841F0020101807047018821F00201BD
:1021900001807047002904D0018841F004010180CA
:1021A0007047018821F0040101807047002904D0A4
:1021B000818841F0800181807047818821F0800111
:1021C00081807047028822F00802028002880A4358
:1021D00002807047828822F07002828082880A43DF
:1021E00082807047028922F00702028102890A4335
:1021F00002817047028922F08002028102890A432B
:10220000028170478184704781857047818670475D
:102210000187704781877047A0F840107047028897
:1022200022F44072028002880A4302807047808E46
:102230007047008F7047808F7047B0F8400070473C
:10224000808C7047008D704702460020128A0A4237
:1022500000D001207047C943018270470246002028
:10226000138A0B4092890A40002B02D0002A00D02A
:1022700001207047C94301827047000010B5E14951
:1022800088420AD101218C032046FFF7A0F920469D
:10229000BDE810400021FFF79AB9DB4988420AD116
:1022A00001214C042046FFF79DF92046BDE810406F
:1022B0000021FFF797B9D54988420AD101218C0442
:1022C0002046FFF78FF92046BDE810400021FFF7B8
:1022D00089B9CF4988420AD10121CC042046FFF7B1
:1022E00081F92046BDE810400021FFF77BB9C949BC
:1022F00088420AD101210C052046FFF773F92046D8
:10230000BDE810400021FFF76DB910BD30B585B0B4
:1023100004460D46208A4CF6FF710840E9880143C7
:102320002182A0894EF6F3110840A9882A89114319
:102330006A8902431143A181A08A4FF6FF410840F8
:10234000A9890143A1826846FFF7D3F8AD488442CA
:1023500001D1039800E00298A189090408D500EB97
:10236000C00101EB001029684900B0FBF1F007E063
:1023700000EBC00101EB001029688900B0FBF1F00F
:102380006422B0FBF2F109010B096FF018056B43F1
:1023900000EB8300A3891D044FF0320307D503EB44
:1023A000C000B0FBF2F000F00700084306E003EBCA
:1023B0000010B0FBF2F000F00F000843208105B0E0
:1023C00030BD4FF41651016000218180C180018130
:1023D0000C2242818181704710B5038A4FF2FF02BF
:1023E00013400A884C8822438C88C9880C432243B6
:1023F0001A43028210BD0021018041808180C1808A
:102400007047002904D0818941F4005181817047CF
:10241000818921F400518181704710B540F66A131B
:10242000C1F3421301F01F040121A140012B07D089
:10243000022B07D014303AB102680A43026010BD83
:102440000C30F8E71030F6E702688A43026010BDEE
:10245000002A03D0828A0A4382827047828A8A4392
:1024600082827047028A22F00F020282028A0A43A5
:1024700002827047828922F40062828182890A4343
:1024800082817047002904D0818941F00201818155
:102490007047818921F0020181817047028A22F010
:1024A00020020282028A0A4302827047002904D075
:1024B000018A41F4804101827047018A21F4804100
:1024C00001827047C1F30801818070478088C0F3A2
:1024D00008007047818941F0010181817047028BBA
:1024E000D2B20283028B42EA012101837047028B40
:1024F00002F47F420283028B0A4302837047002961
:1025000004D0818A41F0200181827047818A21F0C4
:10251000200181827047002904D0818A41F0100196
:1025200081827047818A21F01001818270470029E1
:1025300004D0818A41F0080181827047818A21F0AC
:10254000080181827047002904D0818941F400414B
:10255000818170478189C1F30E0181817047002913
:1025600004D0818A41F4006181827047818A21F41C
:10257000006181827047828A22F004028282828A0C
:102580000A4382827047002904D0818A41F0020107
:1025900081827047818A21F0020181827047024660
:1025A000002012880A4200D0012070478A05C943E2
:1025B0000180704770B5002440F66A12C1F34213DF
:1025C00001F01F05012606FA05F2012B0CD0022BA3
:1025D0000DD0838A1340090A8E40008830400BB129
:1025E00000B10124204670BD83891340F3E7038ABC
:1025F0001340F0E740F66A120A0A01219140C943EC
:10260000018070470038014000440040004800400D
:10261000004C00400050004008B501210420FEF7A6
:10262000C0FF2020ADF8000048208DF803000320F3
:102630008DF8020069469E48FEF757FD08BD9D488B
:102640009D490278002A02D0D1F8142122B1D1F894
:102650001411012904D005E0002101700120704708
:10266000012101700020704700210020401C322809
:10267000FCDB491C3229F8DB704730B58E4AD2F8B2
:10268000144100218B4B002C05D09981D2F81441C4
:10269000012524B106E09C89641C9C81F6E75C78E6
:1026A00004B95D709C784CB95C78012C03D1DC785E
:1026B000641CDC709D70DC78022C04D0D2F81421EC
:1026C000012A04D005E0D9705981022030BD59702B
:1026D0009970DA78012A11D15A89521C92B25A8122
:1026E000824206D99A89824203D2D9705981012047
:1026F00030BD9A89824201D9D9705981002030BDFC
:1027000030B56D4AD2F8144100216A4B002C05D037
:102710001982D2F81441012524B106E01C8A641CF8
:102720001C82F6E71C7904B91D715C794CB91C79DF
:10273000012C03D19C79641C9C715D719C79022CE5
:1027400004D0D2F81421012A04D005E09971D9816E
:10275000022030BD197159719A79012A11D1DA8993
:10276000521C92B2DA81824206D91A8A824203D27C
:102770009971D981012030BD1A8A824201D999719B
:10278000D981002030BD4B490022888A002802D11F
:102790004A4B1B683BB14A824B8A0F2B07D9012059
:1027A00088824A8270474B8A5B1C4B82F4E701287F
:1027B00000D18A82002070472DE9F0478A4601F057
:1027C00021FB01464FF07E5001F006FA3C4901F032
:1027D00061FB8146374C0025DFF8DC80207A002839
:1027E00004D0E571E58225836583A58304D0D8F8FC
:1027F0001401012800D12572D8F81401012760B90D
:10280000207A50B9E771608B401C80B260835045DC
:1028100003D96583208B401C20834946294801F059
:10282000DBF901F0B7FA218B80B2884203D227721C
:102830000320BDE8F087E6796EB1D8F814010128CD
:1028400009D1A08B401C80B2A083504503D9A58339
:10285000E08A401CE082DFF870A0C6B149461B4800
:1028600001F0BAF901F096FAE58A80B2A8420ED2D8
:102870004946504601F0B0F901F08CFA80B2A84206
:1028800005D9D8F8140180B927720220D1E766B1C2
:102890004946504601F0A0F901F07CFAE18A80B285
:1028A000884202D227720120C3E70020C1E700005E
:1028B000000801405C000020000021421401214278
:1028C00000007A44000016440000FA430000484229
:1028D00010B56FF00400FEF749FA2048204900685F
:1028E000B0FBF1F01F49C0B2087000EB4002C2EB30
:1028F000C0104FF6FF7202EAC000488010BD1949AF
:10290000097848434FF0E021486100238B61086952
:1029100040F0010008610869C20701D0C003FAD580
:10292000086920F0010008618B6170470D494988F2
:1029300048434FF0E021486100238B61086940F073
:10294000010008610869C20701D0C003FAD508690F
:1029500020F0010008618B6170470000000000203A
:1029600000127A007A000020714A11400143714838
:10297000016070470721814309026E4A121D1068E9
:102980004FF6FF0318406C4B184308431060704724
:10299000F0B505460F4614461E463046FFF7EAFFDF
:1029A000C6F1040085400F22F2403A402A436009F4
:1029B000800000F1E020D0F8001104F01F05012391
:1029C000AB401943C0F8001104F1E02494F800046E
:1029D00040EA021084F80004F0BD70B58B088C0743
:1029E000240F564DAE6946F00106AE619D00544B72
:1029F0002B449D680F26A640B5439D609D68A0406E
:102A000005439D604F4B1C680120884004431C60B7
:102A1000D10704D04B4B0C3319680143196091075F
:102A200004D5484908310A6802430A6070BD43482A
:102A300000210161C160142242618161C1610268AB
:102A400042F00102026042683F4B1A404260026855
:102A50003E4B1A400260026822F480220260426803
:102A600022F4FE0242608160C0037DE731480830F5
:102A7000016841F0040101603048C16941F08051B2
:102A8000C1613348416841F480714160016841F09F
:102A900004010160016841F002010160FDF774BBAF
:102AA00025482449001D091D086070474106234838
:102AB000826942F0010282612148426822F0E062AC
:102AC000426042680A434260704730B505460024C0
:102AD000FFF7ADFF1949086840F4803008600A68C4
:102AE000520CFCD04FF480604860AD1EE8B24A68DA
:102AF00042EA80404860486840F4803048601548A9
:102B0000026842F032020260086840F0807008609B
:102B10000868400EFCD0486840F00200486003E0BE
:102B20004868800800F00304022CF9D130BD000091
:102B300080FFFF1F08ED00E00000FA0500100240D2
:102B400000000140000401400000FFF8FFFFF6FE16
:102B5000007000400020024030B589B001210420FF
:102B6000FEF72AFD01210820FEF71BFDC020ADF86D
:102B7000040048208DF8070001A97D48FEF7B5FA4A
:102B800006A8FFF7FAF80024ADF818404FF6FF70DA
:102B9000ADF81C00ADF81E40ADF81A40754D06A901
:102BA0002846FEF73DFE00231A4603212846FFF77C
:102BB000A2F902A8FFF7F4F80A21ADF8101002A953
:102BC0002846FFF75BF81E218DF8141001218DF8BF
:102BD00017108DF815408DF8164005A8FEF783F8FC
:102BE00001212846FFF737FB012211462846FFF74F
:102BF00002F900212846FFF705FB01212846FFF7CF
:102C0000E0F809B030BD5B482430B0F900007047EF
:102C100010B5584C01212046FFF716FB012805D1BD
:102C20002046BDE810400121FFF724BB10BDF8B5D8
:102C300001210420FEF7B5FC0920ADF800001026A4
:102C40008DF8036003248DF802404B4F69463846E7
:102C5000FEF74BFA0425ADF800508DF803608DF8AF
:102C6000024069463846FEF740FA0221ADF80010EE
:102C70008DF8035069463846FEF737FAF8BD2DE95E
:102C8000F041064600240025DFF8EC804FF6FF7780
:102C9000300604D501214046FEF796FA03E00121F3
:102CA0004046FEF793FA08214046FEF78FFA0120CE
:102CB000FFF725FE08214046FEF786FA07EA46069A
:102CC0006D1C082DE4DB002507EA4404082140467A
:102CD000FEF77CFA0120FFF712FE08214046FEF7BE
:102CE00073FA02214046FEF75BFA012801D1641C09
:102CF000A4B26D1C082DE7DB2046BDE8F08170B55D
:102D00001D4E04213046FEF761FA0120FFF7F7FD62
:102D10008320FFF7B4FF044604213046FEF754FA3F
:102D20000120FFF7ECFD04213046FEF74FFA0120A9
:102D3000FFF7E5FD8420FFF7A2FF0546042130469A
:102D4000FEF742FA0120FFF7DAFDA00140EA950004
:102D500080B200F0BBFD6FF00D0201F040FA0022DE
:102D6000064B00F0C7FDBDE8704000F075BD0000E7
:102D7000000C01400008004000080140008076403F
:102D800070B588B004460D4601210220FEF714FC00
:102D900001210C20FEF705FC4022ADF81C20042286
:102DA0008DF81F2003228DF81E2007A96F48FEF71B
:102DB0009CF9ADF81440ADF810500024ADF8164061
:102DC000ADF812408DF81840694E04A93046FEF760
:102DD00027FDADF80440ADF806400125ADF80850D8
:102DE000ADF80A400620ADF80C0001A93046FEF708
:102DF00045FF1D208DF800008DF801508DF8025020
:102E00008DF803506846FDF76EFF0122022130461F
:102E1000FEF7F1FF02213046FFF72CFA0121304680
:102E2000FEF7CFFF08B070BD2DE9F047514CDFF839
:102E30004081DFF83C916088002501264C4F08F165
:102E4000240809F134091E282CD202213846FFF744
:102E500005FAD8B1207810B1012817D103E0267007
:102E6000A8F8005012E0B9F800006278616801EB40
:102E70000241014461606088401C80B260801E286D
:102E800002D1B1FBF0F06060657025700121384619
:102E9000FFF7E4F978B3207801282CD16078401C42
:102EA000607028E002213846FFF7D8F9C0B12178D8
:102EB00011B1012914D107E02670A8F800500221B1
:102EC0003846FFF7E1F80BE0B9F80000617800EB55
:102ED0000140A0606570257000213846FFF7D4F8E6
:102EE00001213846FFF7BAF928B12078012802D12C
:102EF0006078401C60703846BDE8F0470321FFF75A
:102F0000B9B92DE9F0470646002400251A4F1BE009
:102F1000DFF86080D8F8040000F074FF8146D8F82C
:102F2000080000F06FFF494600F056FE394600F0F9
:102F3000B1FF4FF07E5101F0ABF8294600F0D8FD0B
:102F4000054600BF641CA4B2B442E1D3304600F091
:102F500059FF0146284600F03FFE394600F03CFE8E
:102F6000BDE8F047054900F095BF000000080140AA
:102F70000004004080000020009880450000B44319
:102F800030B587B00446012144F20400FEF709FB86
:102F90004FF40071ADF8181003208DF81A001820B6
:102FA0008DF81B00964D06A92846FEF79EF82915B8
:102FB000ADF8181004218DF81B1006A92846FEF75D
:102FC00094F825208DF8040001218DF805108DF866
:102FD00006108DF8071001A8FDF785FE0294002069
:102FE000ADF80C00ADF80E00ADF81000ADF814000F
:102FF0000C20ADF81200834C02A92046FFF786F999
:10300000012240F225512046FFF707FA0121204610
:10301000FFF7F7F907B030BD70B592B00446012153
:103020000420FEF7BEFA01214804FEF7C5FA01218B
:103030000846FEF7ABFA0425ADF8445003208DF89E
:10304000460018208DF847006D4E11A93046FEF756
:103050004CF80820ADF844008DF8475011A93046CF
:10306000FEF743F80D940024ADF83840ADF83A402F
:10307000ADF83C40ADF840400C20ADF83E00624D4C
:103080000DA92846FFF742F9604E3046FDF7D0FE05
:103090000A20049003940B945D48029008948020C9
:1030A00006900994281D01900794059440140A90F5
:1030B00001A93046FDF733FF4FF40010FDF784FF00
:1030C00001213046FDF755FF26208DF83000012103
:1030D0008DF831108DF832108DF833100CA8FDF7F3
:1030E00002FE012240F224412846FFF796F9012210
:1030F00040212846FFF7ACF901212846FFF781F966
:1031000012B070BD3F49091D0880081F018849069B
:10311000FCD5704710B503460C46002204E0985CCD
:10312000FFF7F0FF521CD2B2A242F8D310BD3649CD
:10313000091D0880081F01884906FCD5704710B595
:1031400003460C46002204E0985CFFF7F0FF521C97
:10315000D2B2A242F8D310BD10B50346002000221F
:1031600003E09C5C6040521CD2B28A42F9D310BD8D
:1031700070B5244D40F2255631462846FFF71AFA1D
:1031800000280CD02846FFF7A1F9C4B231462846E2
:10319000FFF730FA2046BDE87040FDF795BB70BDE3
:1031A00010B5194C40F224412046FFF703FA0028DD
:1031B00025D02046FFF78AF9144C00212046FDF760
:1031C000D8FE07211248FFF7C7FF1149CA7990427C
:1031D0000BD14878012808D18878022805D1887950
:1031E000497940EA01200B4908600A212046FDF791
:1031F000D7FE2046BDE810400121FDF7BABE10BD44
:103200000008014000380140004400406C000240CA
:10321000200100203400002070B5F74D0024012368
:10322000002902D0C5F8BC3101E0C5F8BC4100213D
:10323000F24AC2F89441060602D5C2F8903101E084
:10324000C2F89041C2F894314006000E491CC9B240
:103250000829EED3C5F8BC3170BDF0B5EFF3108787
:1032600072B60025E64E05F1B000C0B20021FFF7AE
:10327000D3FF00210846FFF7CFFF00211020FFF702
:10328000CBFF002406EBC4000121405DFFF7C4FF23
:10329000641CE4B2802CF5D36D1CEDB2082DE2D392
:1032A000002F00D162B6F0BD00B500218D20FFF7E0
:1032B000B3FF00211420FFF7AFFF0021AF205DF81E
:1032C00004EBA9E700B500218D20FFF7A5FF002141
:1032D0001020FFF7A1FF0021AE205DF804EB9BE773
:1032E00010B40021C64B0022002003EBC00462543E
:1032F000401CC0B28028F8D3491CC9B20829F3D3B6
:1033000010BCAAE710B57F2813D83F2911D807238E
:10331000A3EBD103DBB201F00701C1F107040121E6
:10332000A140C9B2B64C04EBC0001AB1C25C0A435A
:10333000C25410BDC25C8A43C25410BD2DE9F04F87
:1033400083460D469846A946203A02F0FF0A002619
:1033500033E0B8F10C0F0CD0AA4800EB0A10845DE2
:10336000002720060CD529465846099AFFF7CAFFC0
:103370000DE0A5490AEB4A0001EB8000845DEFE710
:10338000099890B1002229465846FFF7BBFF600616
:10339000040E6D1CEDB2A5EB0900404507D14D466A
:1033A0000BF1010B0BF0FF0B05E00122EBE77F1C9B
:1033B000FFB2082FD5D3761CF6B24645C9D3BDE877
:1033C000F08F0346012000E05843491EC9B2FBD2EA
:1033D00070472DE9FF4F81B08046DDF838B0924646
:1033E0001D46002600244FF001094FEA5B071FE04D
:1033F000281B401EC1B20A20FFF7E3FFBAFBF0F022
:103400000A21B0FBF1F201FB120026B9691E8C42C1
:1034100001DA88B101263030C2B207FB0480C0B2A5
:103420005B46CDF800900299FFF788FF641CE4B278
:10343000AC42DDD305B0C2E707FB0480C0B25B46F7
:103440002022CDF800900299FFF778FFEEE7F8B55B
:1034500004460D461646012714E07A2C02D90024B2
:103460001035EDB23A2D03D900242546FFF738FF79
:10347000009732780C2329462046FFF75FFF083477
:10348000E4B2761C30780028E7D1F8BD38B50121C8
:103490000820FEF786F83820ADF8000010248DF8DB
:1034A000034002258DF8025069465848FDF71DFE7D
:1034B00001210420FEF775F8E002ADF800008DF858
:1034C00002508DF8034069465148FDF70EFE012079
:1034D000FDF7FAFE0020FDF7EEFF0020FDF766FC89
:1034E0000020FDF7F1FE4B4C002020606420FFF728
:1034F0001DFA012020600021AE20FFF78DFE002183
:10350000D520FFF789FE00215020FFF785FE00211E
:10351000A820FFF781FE00213F20FFF77DFE00215C
:10352000D320FFF779FE00210846FFF775FE002142
:103530004020FFF771FE00218D20FFF76DFE002176
:103540001420FFF769FE00212020FFF765FE00210F
:103550000220FFF761FE0021A120FFF75DFE0021A0
:10356000C020FFF759FE0021DA20FFF755FE0021A9
:103570001220FFF751FE00218120FFF74DFE0021B0
:10358000EF20FFF749FE0021D920FFF745FE00217B
:10359000F120FFF741FE0021DB20FFF73DFE002177
:1035A0003020FFF739FE0021A420FFF735FE00216F
:1035B000A620FFF731FE0021AF20FFF72DFEFFF719
:1035C0008FFE38BDF0B506460D46174600243A4634
:1035D00029463046FFF796FE3A4629463046FFF721
:1035E00091FE2819C1B23A463046FFF78BFE641CA3
:1035F000E4B2082CF5D3F0BD000021420080214246
:103600002A0100202A470008B6420008000C0140A9
:10361000000801408C81214238B5FFF71EFE0021D1
:103620004AA20846FFF713FF494D0C2428680028DA
:103630000CDD48A200210F20FFF709FF00940623AC
:10364000002119202A68FFF7C4FE0EE042A20021E3
:103650000F20FFF7FCFE2A680094002A00DA52428D
:10366000062300211920FFF7B4FE3CA200213C20D4
:10367000FFF7EDFE3A4D286800280CDD35A2002149
:103680004B20FFF7E4FE00942A6806230021552012
:10369000FFF79FFE0EE030A200214B20FFF7D7FE80
:1036A0002A680094002A00DA52420623002155209D
:1036B000FFF78FFE25A20A210020FFF7C8FE294D43
:1036C000286800280CDD23A20A210F20FFF7BFFE87
:1036D000009406230A2119202A68FFF77AFE0EE0DB
:1036E0000A211DA20846FFF7B2FE2A680094002AAC
:1036F00000DA524206230A211920FFF76AFE17A2B8
:103700000A213C20FFF7A3FE174D286800280CDD96
:1037100010A20A214B20FFF79AFE009406230A21EB
:1037200055202A68FFF755FE38BD0BA20A214B2011
:10373000FFF78DFE2A680094002A00DA5242062321
:103740000A215520FFF745FE38BD0000543A00001D
:10375000140000202B0000002D000000433A000060
:1037600034000020180000202400002010B5074C71
:1037700001212046FEF772FD002805D02046BDE855
:1037800010400121FEF776BD10BD0000002C014065
:103790004FF0000200B5134694469646203922BFEA
:1037A000A0E80C50A0E80C50B1F12001BFF4F7AF35
:1037B000090728BFA0E80C5048BF0CC05DF804EB17
:1037C000890028BF40F8042B08BF704748BF20F885
:1037D000022B11F0804F18BF00F8012B7047704783
:1037E00070477047754600F02BF8AE4605006946F5
:1037F000534620F00700854618B020B5FDF75CFA67
:10380000BDE820404FF000064FF000074FF00008E1
:103810004FF0000B21F00701AC46ACE8C009ACE862
:10382000C009ACE8C009ACE8C0098D46704710B5C6
:103830000446AFF300802046BDE81040FCF79DBC75
:10384000004870472C05002001491820ABBEFEE758
:10385000260002007047000021F00042A2F16052F1
:10386000B2F5801F01F0004328BFD2F17F6C0BD965
:103870005FEA001C43EAC20242EB507018BF704777
:1038800028BF20F001007047B2F5801FBCBF18466A
:1038900070474FEA410C1CF5001F02D2084600F0A9
:1038A000C0BB70B500F0D0F800000089FFF7F6BF8C
:1038B0004FF00040A0F580007047000002494FF033
:1038C000000000F05ABC00BF0000F87FB0FA80F39F
:1038D00010FA03F10AD0C3F11D0303F580634FEA28
:1038E00041504FEA035202EBD12170474FF00000E4
:1038F00070470000DFF848C170B51CEA111E1EBFFA
:103900001CEA13159EEA0C0F95EA0C0F00F06F806D
:1039100081EA030423EA4C134EEAD47E21EA4C11D7
:1039200041F4801143F48013AE44A1FB024CA0FB90
:103930000365AEF17F7E361955EB0C05A1FB034CF8
:103940004CF10003A0FB021C16EB0C06654153F181
:103950000003094218BF46F0010613F4007F0BD1A3
:103960004FEA03314FEA0530340341EA155140EA8A
:1039700016506FF003020AE04FEAC3214FEAC52058
:10398000F40241EA555140EA56506FF0020202EB50
:103990002E4201EB025585EACE710AD05FEA440C53
:1039A00018BF24F0004450F1000041F1000120EA6A
:1039B000D47040F2FE7C624500D270BDA84214BFB4
:1039C0004FF080444FF04044002E08BF0024BEF169
:1039D000806FA8BFA1F1C041BDE8704080F2828035
:1039E0004FF0000001F1C04101F0004170479EEA34
:1039F0000C0F0CEA131518BF95EA0C0F06D04FF008
:103A0000000081EA030E0EF0004170BD00F01CF8CA
:103A10008900013E00F007B800F009B84FEA430CF6
:103A20005FEA5C5C08D081EA030100F05BB84FEA12
:103A3000410C5FEA5C5CF6D14FF000000149704731
:103A40000000FF070000F87F0EF1020E2EF0030EBB
:103A50005EF8046B364205D4012A43EB030515F5E5
:103A6000001F12D8012841EB010C1CF5001F0CD8D7
:103A70000ED14FEAD17C15F5001F0CEB4C0C0CF16C
:103A8000020C08BF4CEBD37C04E04FF0080C01E0C3
:103A90004FEAD37C0CEB4C0526FA05F606F0070638
:103AA000B6F1040C06D20EEB860CBDE870404CF06B
:103AB000010C6047DFE80CF0090B02024FF00041F7
:103AC0004FF00000A1F5002170BD194610460128F5
:103AD00051EB010418BFD4F5001484BF002001F09D
:103AE000004170BD0808A0F500114FEA3101704790
:103AF00090EA010F48BF81F0004100F1D082421AE4
:103B00003CBF801A89184FEAD0524FF07F4C1CEA14
:103B1000410FA2EBD15318BF9CEA026F00F03B802B
:103B20004FF0004C4CEA00204CEA012121FA03FC42
:103B300010EB0C0C1ED202F1FF325FEA1C2040EBAE
:103B4000C25038BF70471CF07F0F4FEA400C18BFBF
:103B5000BCF17F4F38BF7047C3F12003994008BFC5
:103B600020F00100BCF17F4F38BF7047A0F1C0408A
:103B700000F057BA4FEA3C00000A40EBC25028BFA1
:103B80001CF0FF0F4FEA400CE6D018BFBCF17F4F8E
:103B900038BF7047EAE79CEA026F05D010EA5C0F75
:103BA00008BF00F00040704710B500F0F4F900BF06
:103BB00064FBBE3E014800F0E0BA00BF0000C07FD9
:103BC000401058BFC0F14040491058BFC1F14041BA
:103BD0008142EFF3008070474FF47F0C1CEAD01253
:103BE0001EBF1CEAD11392EA0C0F93EA0C0F00F0EF
:103BF000858090EA010F48BF42F4807240F4000CC7
:103C000041F400002CF07F4120F07F4000B581425C
:103C1000A2EB03020FF2081CACEB504EC0F1000007
:103C20009EF800E04FEA4E0E00FB0EFC38BF490044
:103C30004FEA2C1C02F5FA020CFB0EF34FEACE1EE3
:103C40004FEA112C4FEAC1210EEB635E42EB224298
:103C50000EFB0CFC4FEA1C5300FB03114FEA112C26
:103C60004FEA01310EFB0CFC4FEADC4C00FB0C115F
:103C7000C14228BF09184CEB03335DF804EB10EB8D
:103C8000410143EBC250B2F57C0F38BF704729D5D4
:103C900012F0F00F1CBF00F1C04000F00040704770
:103CA000008182838485868788898B8C8D8E8F9115
:103CB0009293959697999A9C9D9FA0A2A3A5A7A839
:103CC000AAACAEB0B2B3B5B7B9BCBEC0C2C5C7C965
:103CD000CCCED1D4D7D9DCDFE2E6E9ECF0F3F7FAC9
:103CE000FE0000004FEA400C0CF1807CBCF17E4FDE
:103CF00028BF7047B0F1C04000F093B990EA010FBF
:103D00000CEAD11348BF42F48072624538BF634564
:103D100007D213F47F0F16D080EA010000F00040B4
:103D2000704710B500F037F9097EFC3E00F005B889
:103D300080EA010000F00040704780EA010000F0D6
:103D4000004000F06EB912F47F0F04BF02487047C4
:103D500080EA010000F065B90000C07F41000B0E51
:103D6000D3F19E0208D950F400034FEA032323FA4B
:103D700002F048BF4042704710B500F00CF900BF98
:103D800049922480002070476FF0004282EA2000B0
:103D900070470000C10DD1F19E0206DB4FEA0023FF
:103DA00043F0004323FA02F07047004207D54FEA80
:103DB0004001B1F1FE4F02D24FF00000704710B544
:103DC00000F0E9F849922480002070476FEA200053
:103DD0007047000010F0004148BF4042B0FA80F345
:103DE00010FA03F2C3F19D030BD051EAC35101EB6A
:103DF0001220530638BF704700F1010008BF20F0C1
:103E000001007047B0FA80F310FA03F2C3F19D038A
:103E10000AD0D90501EB1220530638BF704700F1D4
:103E2000010008BF20F001007047000050EA010CBB
:103E300000F113801CF5000F58BFBCF5000F01D432
:103E40008842704707D710F5000F58BF11F5000FD3
:103E500015D488427047894270471CF5000F04D57D
:103E6000BCF5000FF7D5814270474FF0807C1CEB0A
:103E7000400F38BF1CEB410F01D28142704710B593
:103E800000F089F8922449004FF000504FF0805123
:103E9000FFF796BE4FF47F0C1CEAD0121EBF1CEA3F
:103EA000D11392EA0C0F93EA0C0F00F0478090EACE
:103EB000010F48BF42F480724FF0004C4CEA0020E2
:103EC0004CEA012102EB0302A0FB0113A2F5000260
:103ED000002918BF43F001035B0028BF4FEA3303FA
:103EE00042EB22425FEA132C4CEBC2502EBFBCEBDC
:103EF000436FB2F57C0F70474FEA036CBCF1004F83
:103F000008BF20F00100B2F57C0F38BF70470BD519
:103F100082F0FF0212F5803FC8BF704700F1C04039
:103F2000D8BF00F00040704700F5000C5FEA4C0C71
:103F300048BF7047B0F1C04000F073B890EA010F7D
:103F40000CEAD11348BF42F48072624538BF634522
:103F500004D280EA010000F00040704710B500F084
:103F60001AF800BF8900013E00F007B800F009B858
:103F70005FEA410C5FEA1C6C08D080EA010000F0A7
:103F800050B85FEA400C5FEA1C6CF6D14FF000407D
:103F9000A0F5800070470EF1020E2EF0030E5EF8C1
:103FA000044B244204D44FEA4102B2F17F4F11D8AE
:103FB0004FEA4003B3F17F4F0CD80ED14FEAD07CCB
:103FC000B2F17F4F0CEB4C0C0CF1020C08BF4CEB28
:103FD000D17C04E04FF0080C01E04FEAD17C0CEBFF
:103FE0004C0324FA03F404F00704B4F1040C06D2E1
:103FF0000EEB840CBDE810404CF0010C6047DFE88C
:104000000CF0070802024FF00040A0F5800010BD40
:104010000846420018BFD2F1807288BF00F000400D
:1040200010BDFF2141EAD050C005704751EA000C95
:1040300000F113801CF5000F58BFBCF5000F01D430
:104040008142704707D711F5000F58BF10F5000FD8
:1040500015D481427047894270471CF5000F04D582
:10406000BCF5000FF7D5884270474FF0807C1CEB01
:10407000410F38BF1CEB400F01D28842704780EAE5
:10408000010081EA000180EA0100FFF7F8BE0000AC
:1040900090EA010F48BF81F000413FF530AD421A70
:1040A00004D882F00042A0EB020011444FEAD05243
:1040B0004FF07F4C1CEA410FA2EBD15318BF9CEA92
:1040C000026F4AD04FF0004C4CEA00204CEA01212C
:1040D00021FA03FCB0EB0C0C0FD412F0FE0F36D01B
:1040E0005FEA4C001DD5001240EBC25038BF70474C
:1040F0001CF03F0F18BF70470BE0A2F101025FEA0E
:104100001C2040EBC25038BF70471CF07F0F18BF17
:104110007047C3F12003994014BF401E20F00100F6
:10412000704780084FEA122308BF7047B0FA80FC3E
:10413000A2EB0C02CCF1280C60FA0CF093EA122FDF
:1041400004BF00EBC25070474FEAC3707047130AB8
:104150005FEADC1008BF7047F6E79CEA026F04D004
:1041600010EA5C0F08BF0020704710B5FFF713FF7F
:1041700040DFF63E81F0004070470CF00F03092B42
:1041800008BF082000F07F800A2B0BD0082B18BF37
:10419000704708BF1CF0400F0AD04FF000004FF0EE
:1041A000000170471CF0400F18BF4FF000407047EF
:1041B0001CF0100F08D020F0704300F07F4242EA5C
:1041C000D3014FEA4370704700F0604021F07F4216
:1041D00042EA000201F07F4040EA727070474FF0FF
:1041E000FF0C4CF4E06C1CEA11531CBF9CEA030C5E
:1041F0009445C2BFDA4201EB02517047002B0DD04B
:10420000BCF1000F0FD0002A01F00041A4BF41F023
:10421000E04141F07F614FF00000704701F0004144
:104220004FF00000704750EA01334FF09B0C18BF6D
:104230004CF0806C7FF442AB70474FF0FF0212EA03
:10424000D0521CBF92F0FF038B42C2BFD14200EBA1
:10425000C1507047002A0AD0002B0BD0002900F073
:104260000040A4BF40F0FE4040F40000704700F062
:104270000040704743024FF00B0C18BF4CF0806CAD
:104280007FF498AC70471CF4801F11D01CF4E02F11
:1042900003D06FEACC31490070474FF04050EFF344
:1042A000008222F0704242EA000282F300887047E6
:1042B0004FF0000070470000000000000000000008
:1042C0000000000000003F4000000000000000006F
:1042D0003000400030004000000009000BC03D00ED
:1042E0000BC03D00090018C024407FE0224031800F
:1042F0000000180024C01B000D80324001800380A4
:104300001C4027401C800740004010006000000057
:104310000000000000000000000000001F8020409E
:1043200040200000402020401F80000000000900C5
:1043300006001F80060009000000040004003F8002
:1043400004000400000000100060000000000000F5
:104350000000040004000400040004000000000049
:1043600000400000000000000000002001C0060026
:104370003800400000001F802040204020401F8067
:104380000000000010403FC000400000000018C0C6
:10439000214022402440184000001080204024404A
:1043A00024401B80000002000D0011003FC00140AE
:1043B00000003C80244024402440238000001F80D3
:1043C000244024403440038000003000200027C0F7
:1043D0003800200000001B802440244024401B8023
:1043E00000001C0022C0224022401F80000000006C
:1043F0000000084000000000000000000000046011
:10440000000000000000000004000A0011002080ED
:1044100040400900090009000900090000000000EF
:104420004040208011000A000400180020002340B2
:104430002400180000001F802040274029401F4012
:104440000000004007C039000F0001C000402040BC
:104450003FC0244024401B8000001F80204020409B
:1044600020403080000020403FC0204020401F807E
:10447000000020403FC024402E4030C000002040BB
:104480003FC024402E00300000000F00108020406C
:1044900022403380020020403FC0040004003FC09F
:1044A0002040204020403FC02040204000000060CD
:1044B000202020203FC02000200020403FC024407A
:1044C0000B0030C0204020403FC020400040004052
:1044D00000C03FC03C0003C03C003FC00000204083
:1044E0003FC00C4023003FC020001F8020402040E0
:1044F00020401F80000020403FC0244024001800BE
:1045000000001F802140214020E01FA0000020402B
:104510003FC02440260019C0004018C02440244059
:10452000224031800000300020403FC02040300059
:10453000000020003F80004000403F80200020001D
:104540003E0001C0070038002000380007C03C00D2
:1045500007C038000000204039C0060039C02040A4
:1045600000002000384007C03840200000003040E4
:1045700021C02640384020C00000000000007FE03D
:10458000402040200000000070000C00038000402C
:1045900000000000402040207FE0000000000000FC
:1045A000200040002000000000000010001000105B
:1045B000001000100010000000004000000000008B
:1045C0000000000002800540054003C000402000BC
:1045D0003FC004400440038000000000038004400A
:1045E00004400640000000000380044024403FC017
:1045F000004000000380054005400340000000002B
:1046000004401FC0244024402000000002E0055068
:1046100005500650042020403FC00440040003C061
:1046200000400000044027C00040000000000010CF
:104630000010041027E00000000020403FC00140AF
:10464000070004C00440204020403FC0004000401C
:10465000000007C0040007C0040003C000000440BD
:1046600007C00440040003C0004000000380044071
:10467000044003800000041007F00450044003804D
:104680000000000003800440045007F000100440C4
:1046900007C002400400040000000000064005407E
:1046A000054004C00000000004001F8004400040DA
:1046B0000000040007800040044007C000400400E0
:1046C000070004C0018006000400060001C00700C6
:1046D00001C006000000044006C0010006C00440FE
:1046E00000000410071004E0018006000400000030
:1046F000044005C006400440000000000000040023
:104700007BE040200000000000000000FFF00000FF
:104710000000000040207BE004000000000040009A
:104720008000400020002000400000000000000049
:104730000000000000000000000000000000000079
:104740001FCC000C0000000000000000080030003A
:1047500060000800300060000000022003FC1E2002
:10476000022003FC1E200220000000000E1811048D
:104770003FFF10840C78000000000F0010840F38F9
:1047800000C0077818840078000000780F8410C4F7
:1047900011240E9800E400840008080068007000EE
:1047A0000000000000000000000000000000000009
:1047B00007E0181820044002000000004002200416
:1047C000181807E0000000000000024002400180CD
:1047D0000FF0018002400240000000800080008055
:1047E0000FF800800080008000000001000D000E26
:1047F00000000000000000000000000000800080B9
:10480000008000800080008000800000000C000C10
:10481000000000000000000000000000000600187A
:1048200000600180060018002000000007F0080862
:1048300010041004080807F0000000000804080431
:104840001FFC000400040000000000000E0C101407
:104850001024104411840E0C000000000C181004E9
:104860001104110412880C700000000000E0032005
:10487000042408241FFC0024000000001F9810845A
:1048800011041104108810700000000007F008885F
:104890001104110418880070000000001C001000B2
:1048A00010FC13001C001000000000000E38114422
:1048B0001084108411440E38000000000700088C9A
:1048C00010441044088807F00000000000000000B9
:1048D000030C030C000000000000000000000001B9
:1048E0000106000000000000000000000080014000
:1048F00002200410080810040000022002200220F8
:1049000002200220022002200000000010040808FB
:104910000410022001400080000000000E00120080
:10492000100C106C10800F00000003E00C1813E452
:10493000142417C4082807D000000004003C03C456
:104940001C40074000E4001C000410041FFC11047C
:10495000110411040E880070000003E00C1810040C
:104960001004100410081C10000010041FFC100498
:1049700010041004080807F0000010041FFC1104C4
:10498000110417C410040818000010041FFC1104BF
:10499000110017C010000800000003E00C181004FC
:1049A000100410441C780040000010041FFC108408
:1049B0000080008010841FFC10040000100410040C
:1049C0001FFC10041004000000000003000110018F
:1049D00010011FFE10001000000010041FFC110445
:1049E00003801464181C1004000010041FFC100441
:1049F000000400040004000C000010041FFC1F0051
:104A000000FC1F001FFC1004000010041FFC0C041D
:104A1000030000E010181FFC100007F00808100445
:104A200010041004080807F0000010041FFC108494
:104A30001080108010800F00000007F0081810246C
:104A40001024101C080A07F2000010041FFC1104B7
:104A5000110011C011300E0C000400000E1C1104D6
:104A60001084108410441C3800001800100010043A
:104A70001FFC100410001800000010001FF81004A4
:104A80000004000410041FF8100010001E0011E0C4
:104A9000001C007013801C0010001FC0103C00E0C0
:104AA0001F0000E0103C1FC000001004180C16345A
:104AB00001C001C01634180C100410001C001304AF
:104AC00000FC13041C00100000000804101C1064FB
:104AD000108413041C0410180000000000000000E3
:104AE0007FFE4002400240020000000030000C0047
:104AF00003800060001C0003000000004002400230
:104B000040027FFE000000000000000000002000C6
:104B100040004000400020000000000100010001B2
:104B20000001000100010001000100004000400000
:104B30002000000000000000000000000098012498
:104B400001440144014400FC000410001FFC0088E3
:104B5000010401040088007000000000007000885B
:104B600001040104010400880000000000700088B6
:104B70000104010411081FFC0004000000F80144B6
:104B800001440144014400C8000000000104010484
:104B90000FFC1104110411001800000000D60129B7
:104BA0000129012901C90106000010041FFC00842D
:104BB00001000100010400FC0004000001041904CC
:104BC00019FC0004000400000000000000030001C4
:104BD0000101190119FE0000000010041FFC00244F
:104BE000004001B4010C0104000000001004100496
:104BF0001FFC0004000400000000010401FC01048B
:104C0000010001FC0104010000FC010401FC00841E
:104C100001000100010400FC0004000000F8010490
:104C200001040104010400F80000010101FF0085F6
:104C3000010401040088007000000000007000887A
:104C400001040104010501FF00010104010401FC4C
:104C500000840104010001800000000000CC012458
:104C6000012401240124019800000000010001003A
:104C700007F80104010400000000010001F800042D
:104C800000040004010801FC00040100018001701F
:104C9000000C001001600180010001F0010C0030E7
:104CA00001C00030010C01F0010000000104018C82
:104CB00000740170018C0104000001010181017187
:104CC000000E001801600180010000000184010C49
:104CD000013401440184010C0000000000000000C8
:104CE000000001003EFC4002400200000000000005
:104CF0000000FFFF00000000000000004002400232
:104D00003EFC010000000000000000006000800088
:104D10008000400040002000200000003C4D0008C2
:104D2000000000208C00000028010008C84D000889
:104D30008C000020040B00004401000800A24A047B
:104D4000000000000000000001020304060708093B
:104D50000000000000000000000000000000000053
:104D60000000000000000000000000000000000043
:104D70000000000000000000000000000000000033
:104D80000000000002040608000000000102030405
:104D900001020304060708090100000000000000EA
:104DA0000000000000000000000000000000000003
:104DB00000000000000000000000000000000000F3
:084DC0000000000000000000EB
:04000005080000ED02
:00000001FF
